{
  "contractName": "ERC1155",
  "abi": [
    {
      "inputs": [
        {
          "internalType": "string",
          "name": "uri",
          "type": "string"
        }
      ],
      "stateMutability": "nonpayable",
      "type": "constructor"
    },
    {
      "anonymous": false,
      "inputs": [
        {
          "indexed": true,
          "internalType": "address",
          "name": "account",
          "type": "address"
        },
        {
          "indexed": true,
          "internalType": "address",
          "name": "operator",
          "type": "address"
        },
        {
          "indexed": false,
          "internalType": "bool",
          "name": "approved",
          "type": "bool"
        }
      ],
      "name": "ApprovalForAll",
      "type": "event"
    },
    {
      "anonymous": false,
      "inputs": [
        {
          "indexed": true,
          "internalType": "address",
          "name": "operator",
          "type": "address"
        },
        {
          "indexed": true,
          "internalType": "address",
          "name": "from",
          "type": "address"
        },
        {
          "indexed": true,
          "internalType": "address",
          "name": "to",
          "type": "address"
        },
        {
          "indexed": false,
          "internalType": "uint256[]",
          "name": "ids",
          "type": "uint256[]"
        },
        {
          "indexed": false,
          "internalType": "uint256[]",
          "name": "values",
          "type": "uint256[]"
        }
      ],
      "name": "TransferBatch",
      "type": "event"
    },
    {
      "anonymous": false,
      "inputs": [
        {
          "indexed": true,
          "internalType": "address",
          "name": "operator",
          "type": "address"
        },
        {
          "indexed": true,
          "internalType": "address",
          "name": "from",
          "type": "address"
        },
        {
          "indexed": true,
          "internalType": "address",
          "name": "to",
          "type": "address"
        },
        {
          "indexed": false,
          "internalType": "uint256",
          "name": "id",
          "type": "uint256"
        },
        {
          "indexed": false,
          "internalType": "uint256",
          "name": "value",
          "type": "uint256"
        }
      ],
      "name": "TransferSingle",
      "type": "event"
    },
    {
      "anonymous": false,
      "inputs": [
        {
          "indexed": false,
          "internalType": "string",
          "name": "value",
          "type": "string"
        },
        {
          "indexed": true,
          "internalType": "uint256",
          "name": "id",
          "type": "uint256"
        }
      ],
      "name": "URI",
      "type": "event"
    },
    {
      "inputs": [
        {
          "internalType": "address",
          "name": "",
          "type": "address"
        },
        {
          "internalType": "address",
          "name": "",
          "type": "address"
        }
      ],
      "name": "approvals",
      "outputs": [
        {
          "internalType": "bool",
          "name": "",
          "type": "bool"
        }
      ],
      "stateMutability": "view",
      "type": "function",
      "constant": true
    },
    {
      "inputs": [
        {
          "internalType": "address",
          "name": "",
          "type": "address"
        },
        {
          "internalType": "uint256",
          "name": "",
          "type": "uint256"
        }
      ],
      "name": "balances",
      "outputs": [
        {
          "internalType": "uint256",
          "name": "",
          "type": "uint256"
        }
      ],
      "stateMutability": "view",
      "type": "function",
      "constant": true
    },
    {
      "inputs": [],
      "name": "baseUri",
      "outputs": [
        {
          "internalType": "string",
          "name": "",
          "type": "string"
        }
      ],
      "stateMutability": "view",
      "type": "function",
      "constant": true
    },
    {
      "inputs": [],
      "name": "lastId",
      "outputs": [
        {
          "internalType": "uint256",
          "name": "",
          "type": "uint256"
        }
      ],
      "stateMutability": "view",
      "type": "function",
      "constant": true
    },
    {
      "inputs": [
        {
          "internalType": "address",
          "name": "account",
          "type": "address"
        },
        {
          "internalType": "uint256",
          "name": "id",
          "type": "uint256"
        }
      ],
      "name": "balanceOf",
      "outputs": [
        {
          "internalType": "uint256",
          "name": "",
          "type": "uint256"
        }
      ],
      "stateMutability": "view",
      "type": "function",
      "constant": true
    },
    {
      "inputs": [
        {
          "internalType": "address[]",
          "name": "accounts",
          "type": "address[]"
        },
        {
          "internalType": "uint256[]",
          "name": "ids",
          "type": "uint256[]"
        }
      ],
      "name": "balanceOfBatch",
      "outputs": [
        {
          "internalType": "uint256[]",
          "name": "",
          "type": "uint256[]"
        }
      ],
      "stateMutability": "view",
      "type": "function",
      "constant": true
    },
    {
      "inputs": [
        {
          "internalType": "address",
          "name": "operator",
          "type": "address"
        },
        {
          "internalType": "bool",
          "name": "approved",
          "type": "bool"
        }
      ],
      "name": "setApprovalForAll",
      "outputs": [],
      "stateMutability": "nonpayable",
      "type": "function"
    },
    {
      "inputs": [
        {
          "internalType": "address",
          "name": "account",
          "type": "address"
        },
        {
          "internalType": "address",
          "name": "operator",
          "type": "address"
        }
      ],
      "name": "isApprovedForAll",
      "outputs": [
        {
          "internalType": "bool",
          "name": "",
          "type": "bool"
        }
      ],
      "stateMutability": "view",
      "type": "function",
      "constant": true
    },
    {
      "inputs": [
        {
          "internalType": "address",
          "name": "from",
          "type": "address"
        },
        {
          "internalType": "address",
          "name": "to",
          "type": "address"
        },
        {
          "internalType": "uint256",
          "name": "id",
          "type": "uint256"
        },
        {
          "internalType": "uint256",
          "name": "amount",
          "type": "uint256"
        },
        {
          "internalType": "bytes",
          "name": "data",
          "type": "bytes"
        }
      ],
      "name": "safeTransferFrom",
      "outputs": [],
      "stateMutability": "nonpayable",
      "type": "function"
    },
    {
      "inputs": [
        {
          "internalType": "address",
          "name": "from",
          "type": "address"
        },
        {
          "internalType": "address",
          "name": "to",
          "type": "address"
        },
        {
          "internalType": "uint256[]",
          "name": "ids",
          "type": "uint256[]"
        },
        {
          "internalType": "uint256[]",
          "name": "amounts",
          "type": "uint256[]"
        },
        {
          "internalType": "bytes",
          "name": "data",
          "type": "bytes"
        }
      ],
      "name": "safeBatchTransferFrom",
      "outputs": [],
      "stateMutability": "nonpayable",
      "type": "function"
    },
    {
      "inputs": [
        {
          "internalType": "uint256",
          "name": "amount",
          "type": "uint256"
        }
      ],
      "name": "mint",
      "outputs": [],
      "stateMutability": "nonpayable",
      "type": "function"
    },
    {
      "inputs": [
        {
          "internalType": "bytes4",
          "name": "interfaceId",
          "type": "bytes4"
        }
      ],
      "name": "supportsInterface",
      "outputs": [
        {
          "internalType": "bool",
          "name": "",
          "type": "bool"
        }
      ],
      "stateMutability": "view",
      "type": "function",
      "constant": true
    }
  ],
  "bytecode": "0x608060405260405180602001604052806000815250600090805190602001906200002b92919062000083565b50600180553480156200003d57600080fd5b506040516200214c3803806200214c8339818101604052810190620000639190620001b1565b80600090805190602001906200007b92919062000083565b505062000386565b828054620000919062000297565b90600052602060002090601f016020900481019282620000b5576000855562000101565b82601f10620000d057805160ff191683800117855562000101565b8280016001018555821562000101579182015b8281111562000100578251825591602001919060010190620000e3565b5b50905062000110919062000114565b5090565b5b808211156200012f57600081600090555060010162000115565b5090565b60006200014a62000144846200022b565b62000202565b90508281526020810184848401111562000169576200016862000366565b5b6200017684828562000261565b509392505050565b600082601f83011262000196576200019562000361565b5b8151620001a884826020860162000133565b91505092915050565b600060208284031215620001ca57620001c962000370565b5b600082015167ffffffffffffffff811115620001eb57620001ea6200036b565b5b620001f9848285016200017e565b91505092915050565b60006200020e62000221565b90506200021c8282620002cd565b919050565b6000604051905090565b600067ffffffffffffffff82111562000249576200024862000332565b5b620002548262000375565b9050602081019050919050565b60005b838110156200028157808201518184015260208101905062000264565b8381111562000291576000848401525b50505050565b60006002820490506001821680620002b057607f821691505b60208210811415620002c757620002c662000303565b5b50919050565b620002d88262000375565b810181811067ffffffffffffffff82111715620002fa57620002f962000332565b5b80604052505050565b7f4e487b7100000000000000000000000000000000000000000000000000000000600052602260045260246000fd5b7f4e487b7100000000000000000000000000000000000000000000000000000000600052604160045260246000fd5b600080fd5b600080fd5b600080fd5b600080fd5b6000601f19601f8301169050919050565b611db680620003966000396000f3fe608060405234801561001057600080fd5b50600436106100d0576000357c010000000000000000000000000000000000000000000000000000000090048063a22cb4651161008e578063a22cb465146101bb578063a32ce11e146101d7578063c1292cc314610207578063cbf1304d14610225578063e985e9c514610255578063f242432a14610285576100d0565b8062fdd58e146100d557806301ffc9a7146101055780632eb2c2d6146101355780634e1273f4146101515780639abc832014610181578063a0712d681461019f575b600080fd5b6100ef60048036038101906100ea91906113b5565b6102a1565b6040516100fc91906117e8565b60405180910390f35b61011f600480360381019061011a919061146d565b6102fc565b60405161012c919061170b565b60405180910390f35b61014f600480360381019061014a9190611202565b610366565b005b61016b600480360381019061016691906113f5565b6107c8565b60405161017891906116e9565b60405180910390f35b6101896108e2565b6040516101969190611726565b60405180910390f35b6101b960048036038101906101b4919061149a565b610970565b005b6101d560048036038101906101d09190611375565b6109e2565b005b6101f160048036038101906101ec91906111c2565b610adf565b6040516101fe919061170b565b60405180910390f35b61020f610b0e565b60405161021c91906117e8565b60405180910390f35b61023f600480360381019061023a91906113b5565b610b14565b60405161024c91906117e8565b60405180910390f35b61026f600480360381019061026a91906111c2565b610b39565b60405161027c919061170b565b60405180910390f35b61029f600480360381019061029a91906112de565b610bcd565b005b6000600260008473ffffffffffffffffffffffffffffffffffffffff1673ffffffffffffffffffffffffffffffffffffffff168152602001908152602001600020600083815260200190815260200160002054905092915050565b60007fd9b67a26000000000000000000000000000000000000000000000000000000007bffffffffffffffffffffffffffffffffffffffffffffffffffffffff1916827bffffffffffffffffffffffffffffffffffffffffffffffffffffffff1916149050919050565b600073ffffffffffffffffffffffffffffffffffffffff168773ffffffffffffffffffffffffffffffffffffffff1614156103d6576040517f08c379a00000000000000000000000000000000000000000000000000000000081526004016103cd90611788565b60405180910390fd5b83839050868690501461041e576040517f08c379a000000000000000000000000000000000000000000000000000000000815260040161041590611768565b60405180910390fd5b60005b86869050811161073b578873ffffffffffffffffffffffffffffffffffffffff163373ffffffffffffffffffffffffffffffffffffffff1614806104f2575060011515600360008b73ffffffffffffffffffffffffffffffffffffffff1673ffffffffffffffffffffffffffffffffffffffff16815260200190815260200160002060003373ffffffffffffffffffffffffffffffffffffffff1673ffffffffffffffffffffffffffffffffffffffff16815260200190815260200160002060009054906101000a900460ff161515145b610531576040517f08c379a0000000000000000000000000000000000000000000000000000000008152600401610528906117c8565b60405180910390fd5b84848281811061054457610543611b79565b5b90506020020135600260008b73ffffffffffffffffffffffffffffffffffffffff1673ffffffffffffffffffffffffffffffffffffffff168152602001908152602001600020600089898581811061059f5761059e611b79565b5b9050602002013581526020019081526020016000205410156105f6576040517f08c379a00000000000000000000000000000000000000000000000000000000081526004016105ed906117a8565b60405180910390fd5b84848281811061060957610608611b79565b5b90506020020135600260008b73ffffffffffffffffffffffffffffffffffffffff1673ffffffffffffffffffffffffffffffffffffffff168152602001908152602001600020600089898581811061066457610663611b79565b5b90506020020135815260200190815260200160002060008282546106889190611985565b925050819055508484828181106106a2576106a1611b79565b5b90506020020135600260008a73ffffffffffffffffffffffffffffffffffffffff1673ffffffffffffffffffffffffffffffffffffffff16815260200190815260200160002060008989858181106106fd576106fc611b79565b5b9050602002013581526020019081526020016000206000828254610721919061192f565b92505081905550808061073390611ad2565b915050610421565b508673ffffffffffffffffffffffffffffffffffffffff168873ffffffffffffffffffffffffffffffffffffffff163373ffffffffffffffffffffffffffffffffffffffff167f4a39dc06d4c0dbc64b70af90fd698a233a518aa5d07e595d983b8c0526c8f7fb898989896040516107b694939291906116ae565b60405180910390a45050505050505050565b6060815183511461080e576040517f08c379a000000000000000000000000000000000000000000000000000000000815260040161080590611768565b60405180910390fd5b6000835167ffffffffffffffff81111561082b5761082a611ba8565b5b6040519080825280602002602001820160405280156108595781602001602082028036833780820191505090505b50905060005b845181116108d7576108a585828151811061087d5761087c611b79565b5b602002602001015185838151811061089857610897611b79565b5b60200260200101516102a1565b8282815181106108b8576108b7611b79565b5b60200260200101818152505080806108cf90611ad2565b91505061085f565b508091505092915050565b600080546108ef90611a6f565b80601f016020809104026020016040519081016040528092919081815260200182805461091b90611a6f565b80156109685780601f1061093d57610100808354040283529160200191610968565b820191906000526020600020905b81548152906001019060200180831161094b57829003601f168201915b505050505081565b80600260003373ffffffffffffffffffffffffffffffffffffffff1673ffffffffffffffffffffffffffffffffffffffff1681526020019081526020016000206000600154815260200190815260200160002081905550600160008154809291906109da90611ad2565b919050555050565b80600360003373ffffffffffffffffffffffffffffffffffffffff1673ffffffffffffffffffffffffffffffffffffffff16815260200190815260200160002060008473ffffffffffffffffffffffffffffffffffffffff1673ffffffffffffffffffffffffffffffffffffffff16815260200190815260200160002060006101000a81548160ff0219169083151502179055508173ffffffffffffffffffffffffffffffffffffffff163373ffffffffffffffffffffffffffffffffffffffff167f17307eab39ab6107e8899845ad3d59bd9653f200f220920489ca2b5937696c3183604051610ad3919061170b565b60405180910390a35050565b60036020528160005260406000206020528060005260406000206000915091509054906101000a900460ff1681565b60015481565b6002602052816000526040600020602052806000526040600020600091509150505481565b6000600360008473ffffffffffffffffffffffffffffffffffffffff1673ffffffffffffffffffffffffffffffffffffffff16815260200190815260200160002060008373ffffffffffffffffffffffffffffffffffffffff1673ffffffffffffffffffffffffffffffffffffffff16815260200190815260200160002060009054906101000a900460ff16905092915050565b600073ffffffffffffffffffffffffffffffffffffffff168473ffffffffffffffffffffffffffffffffffffffff161415610c3d576040517f08c379a0000000000000000000000000000000000000000000000000000000008152600401610c3490611788565b60405180910390fd5b3373ffffffffffffffffffffffffffffffffffffffff168573ffffffffffffffffffffffffffffffffffffffff161480610d04575060011515600360008773ffffffffffffffffffffffffffffffffffffffff1673ffffffffffffffffffffffffffffffffffffffff16815260200190815260200160002060003373ffffffffffffffffffffffffffffffffffffffff1673ffffffffffffffffffffffffffffffffffffffff16815260200190815260200160002060009054906101000a900460ff161515145b610d43576040517f08c379a0000000000000000000000000000000000000000000000000000000008152600401610d3a90611748565b60405180910390fd5b81600260008773ffffffffffffffffffffffffffffffffffffffff1673ffffffffffffffffffffffffffffffffffffffff1681526020019081526020016000206000858152602001908152602001600020541015610da057600080fd5b81600260008773ffffffffffffffffffffffffffffffffffffffff1673ffffffffffffffffffffffffffffffffffffffff16815260200190815260200160002060008581526020019081526020016000206000828254610e009190611985565b9250508190555081600260008673ffffffffffffffffffffffffffffffffffffffff1673ffffffffffffffffffffffffffffffffffffffff16815260200190815260200160002060008581526020019081526020016000206000828254610e67919061192f565b925050819055508373ffffffffffffffffffffffffffffffffffffffff168573ffffffffffffffffffffffffffffffffffffffff163373ffffffffffffffffffffffffffffffffffffffff167fc3d58168c5ae7397731d063d5bbf3d657854427343f4c083240f7aacaa2d0f628686604051610ee4929190611803565b60405180910390a4610ef584610efd565b505050505050565b600080823b905060008163ffffffff1611915050919050565b6000610f29610f2484611851565b61182c565b90508083825260208201905082856020860282011115610f4c57610f4b611be1565b5b60005b85811015610f7c5781610f628882611038565b845260208401935060208301925050600181019050610f4f565b5050509392505050565b6000610f99610f948461187d565b61182c565b90508083825260208201905082856020860282011115610fbc57610fbb611be1565b5b60005b85811015610fec5781610fd288826111ad565b845260208401935060208301925050600181019050610fbf565b5050509392505050565b6000611009611004846118a9565b61182c565b90508281526020810184848401111561102557611024611be6565b5b611030848285611a2d565b509392505050565b60008135905061104781611d24565b92915050565b600082601f83011261106257611061611bdc565b5b8135611072848260208601610f16565b91505092915050565b60008083601f84011261109157611090611bdc565b5b8235905067ffffffffffffffff8111156110ae576110ad611bd7565b5b6020830191508360208202830111156110ca576110c9611be1565b5b9250929050565b600082601f8301126110e6576110e5611bdc565b5b81356110f6848260208601610f86565b91505092915050565b60008135905061110e81611d3b565b92915050565b60008135905061112381611d52565b92915050565b60008083601f84011261113f5761113e611bdc565b5b8235905067ffffffffffffffff81111561115c5761115b611bd7565b5b60208301915083600182028301111561117857611177611be1565b5b9250929050565b600082601f83011261119457611193611bdc565b5b81356111a4848260208601610ff6565b91505092915050565b6000813590506111bc81611d69565b92915050565b600080604083850312156111d9576111d8611bf5565b5b60006111e785828601611038565b92505060206111f885828601611038565b9150509250929050565b60008060008060008060008060a0898b03121561122257611221611bf5565b5b60006112308b828c01611038565b98505060206112418b828c01611038565b975050604089013567ffffffffffffffff81111561126257611261611beb565b5b61126e8b828c0161107b565b9650965050606089013567ffffffffffffffff81111561129157611290611beb565b5b61129d8b828c0161107b565b9450945050608089013567ffffffffffffffff8111156112c0576112bf611beb565b5b6112cc8b828c01611129565b92509250509295985092959890939650565b600080600080600060a086880312156112fa576112f9611bf5565b5b600061130888828901611038565b955050602061131988828901611038565b945050604061132a888289016111ad565b935050606061133b888289016111ad565b925050608086013567ffffffffffffffff81111561135c5761135b611beb565b5b6113688882890161117f565b9150509295509295909350565b6000806040838503121561138c5761138b611bf5565b5b600061139a85828601611038565b92505060206113ab858286016110ff565b9150509250929050565b600080604083850312156113cc576113cb611bf5565b5b60006113da85828601611038565b92505060206113eb858286016111ad565b9150509250929050565b6000806040838503121561140c5761140b611bf5565b5b600083013567ffffffffffffffff81111561142a57611429611beb565b5b6114368582860161104d565b925050602083013567ffffffffffffffff81111561145757611456611beb565b5b611463858286016110d1565b9150509250929050565b60006020828403121561148357611482611bf5565b5b600061149184828501611114565b91505092915050565b6000602082840312156114b0576114af611bf5565b5b60006114be848285016111ad565b91505092915050565b60006114d38383611690565b60208301905092915050565b60006114eb838561190d565b93507f07ffffffffffffffffffffffffffffffffffffffffffffffffffffffffffffff83111561151e5761151d611bf0565b5b60208302925061152f838584611a2d565b82840190509392505050565b6000611546826118ea565b611550818561190d565b935061155b836118da565b8060005b8381101561158c57815161157388826114c7565b975061157e83611900565b92505060018101905061155f565b5085935050505092915050565b6115a2816119cb565b82525050565b60006115b3826118f5565b6115bd818561191e565b93506115cd818560208601611a3c565b6115d681611bfa565b840191505092915050565b60006115ee601c8361191e565b91506115f982611c0b565b602082019050919050565b600061161160398361191e565b915061161c82611c34565b604082019050919050565b600061163460268361191e565b915061163f82611c83565b604082019050919050565b6000611657601d8361191e565b915061166282611cd2565b602082019050919050565b600061167a601f8361191e565b915061168582611cfb565b602082019050919050565b61169981611a23565b82525050565b6116a881611a23565b82525050565b600060408201905081810360008301526116c98186886114df565b905081810360208301526116de8184866114df565b905095945050505050565b60006020820190508181036000830152611703818461153b565b905092915050565b60006020820190506117206000830184611599565b92915050565b6000602082019050818103600083015261174081846115a8565b905092915050565b60006020820190508181036000830152611761816115e1565b9050919050565b6000602082019050818103600083015261178181611604565b9050919050565b600060208201905081810360008301526117a181611627565b9050919050565b600060208201905081810360008301526117c18161164a565b9050919050565b600060208201905081810360008301526117e18161166d565b9050919050565b60006020820190506117fd600083018461169f565b92915050565b6000604082019050611818600083018561169f565b611825602083018461169f565b9392505050565b6000611836611847565b90506118428282611aa1565b919050565b6000604051905090565b600067ffffffffffffffff82111561186c5761186b611ba8565b5b602082029050602081019050919050565b600067ffffffffffffffff82111561189857611897611ba8565b5b602082029050602081019050919050565b600067ffffffffffffffff8211156118c4576118c3611ba8565b5b6118cd82611bfa565b9050602081019050919050565b6000819050602082019050919050565b600081519050919050565b600081519050919050565b6000602082019050919050565b600082825260208201905092915050565b600082825260208201905092915050565b600061193a82611a23565b915061194583611a23565b9250827fffffffffffffffffffffffffffffffffffffffffffffffffffffffffffffffff0382111561197a57611979611b1b565b5b828201905092915050565b600061199082611a23565b915061199b83611a23565b9250828210156119ae576119ad611b1b565b5b828203905092915050565b60006119c482611a03565b9050919050565b60008115159050919050565b60007fffffffff0000000000000000000000000000000000000000000000000000000082169050919050565b600073ffffffffffffffffffffffffffffffffffffffff82169050919050565b6000819050919050565b82818337600083830152505050565b60005b83811015611a5a578082015181840152602081019050611a3f565b83811115611a69576000848401525b50505050565b60006002820490506001821680611a8757607f821691505b60208210811415611a9b57611a9a611b4a565b5b50919050565b611aaa82611bfa565b810181811067ffffffffffffffff82111715611ac957611ac8611ba8565b5b80604052505050565b6000611add82611a23565b91507fffffffffffffffffffffffffffffffffffffffffffffffffffffffffffffffff821415611b1057611b0f611b1b565b5b600182019050919050565b7f4e487b7100000000000000000000000000000000000000000000000000000000600052601160045260246000fd5b7f4e487b7100000000000000000000000000000000000000000000000000000000600052602260045260246000fd5b7f4e487b7100000000000000000000000000000000000000000000000000000000600052603260045260246000fd5b7f4e487b7100000000000000000000000000000000000000000000000000000000600052604160045260246000fd5b600080fd5b600080fd5b600080fd5b600080fd5b600080fd5b600080fd5b600080fd5b6000601f19601f8301169050919050565b7f596f75722062616c616e636520697320696e73756666696369656e7400000000600082015250565b7f546865206c656e677468206f6620696473206e6565647320746f20626520657160008201527f75616c20746f206c656e677468206f6620616d6d6f756e747300000000000000602082015250565b7f596f752063616e2774206d616b652061207472616e7366657220746f2061646460008201527f7265737320300000000000000000000000000000000000000000000000000000602082015250565b7f596f75722062616c616e636520697320696e73756666696369656e7421000000600082015250565b7f596f7520617265206e6f7420616c6c6f77656420746f20646f20746869732100600082015250565b611d2d816119b9565b8114611d3857600080fd5b50565b611d44816119cb565b8114611d4f57600080fd5b50565b611d5b816119d7565b8114611d6657600080fd5b50565b611d7281611a23565b8114611d7d57600080fd5b5056fea264697066735822122053f9c0919c0a6c6a8ed84f4ea1c00a48451cd00eb7ebf18b6440400ed346877a64736f6c63430008060033",
  "immutableReferences": {},
  "source": "// SPDX-License-Identifier: MIT\r\n\r\npragma solidity ^0.8.0;\r\nimport \"@openzeppelin/contracts/utils/introspection/IERC165.sol\";\r\n\r\ninterface IERC1155 is IERC165 {\r\n    event TransferSingle(\r\n        address indexed operator,\r\n        address indexed from,\r\n        address indexed to,\r\n        uint256 id,\r\n        uint256 value\r\n    );\r\n    event TransferBatch(\r\n        address indexed operator,\r\n        address indexed from,\r\n        address indexed to,\r\n        uint256[] ids,\r\n        uint256[] values\r\n    );\r\n    event ApprovalForAll(\r\n        address indexed account,\r\n        address indexed operator,\r\n        bool approved\r\n    );\r\n    event URI(string value, uint256 indexed id);\r\n\r\n    function balanceOf(address account, uint256 id)\r\n        external\r\n        view\r\n        returns (uint256);\r\n\r\n    function balanceOfBatch(address[] calldata accounts, uint256[] calldata ids)\r\n        external\r\n        view\r\n        returns (uint256[] memory);\r\n\r\n    function setApprovalForAll(address operator, bool approved) external;\r\n\r\n    function isApprovedForAll(address account, address operator)\r\n        external\r\n        view\r\n        returns (bool);\r\n\r\n    function safeTransferFrom(\r\n        address from,\r\n        address to,\r\n        uint256 id,\r\n        uint256 amount,\r\n        bytes calldata data\r\n    ) external;\r\n\r\n    function safeBatchTransferFrom(\r\n        address from,\r\n        address to,\r\n        uint256[] calldata ids,\r\n        uint256[] calldata amounts,\r\n        bytes calldata data\r\n    ) external;\r\n}\r\n\r\ncontract ERC1155 is IERC1155 {\r\n    string public baseUri = \"\";\r\n    uint256 public lastId = 1;\r\n    //address => tokenId => amount\r\n    mapping(address => mapping(uint256 => uint256)) public balances;\r\n    //real owner => account => is allowed to spend owners balance? yes | no\r\n    mapping(address => mapping(address => bool)) public approvals;\r\n\r\n    constructor(string memory uri) {\r\n        baseUri = uri;\r\n    }\r\n\r\n    function balanceOf(address account, uint256 id)\r\n        public\r\n        view\r\n        override\r\n        returns (uint256)\r\n    {\r\n        return balances[account][id];\r\n    }\r\n\r\n    function balanceOfBatch(address[] memory accounts, uint256[] memory ids)\r\n        public\r\n        view\r\n        override\r\n        returns (uint256[] memory)\r\n    {\r\n        require(\r\n            accounts.length == ids.length,\r\n            \"The length of ids needs to be equal to length of ammounts\"\r\n        );\r\n        uint256[] memory batchBalances = new uint256[](accounts.length);\r\n        for (uint256 i = 0; i <= accounts.length; i++) {\r\n            batchBalances[i] = balanceOf(accounts[i], ids[i]);\r\n        }\r\n        return batchBalances;\r\n    }\r\n\r\n    function setApprovalForAll(address operator, bool approved)\r\n        public\r\n        override\r\n    {\r\n        approvals[msg.sender][operator] = approved;\r\n        emit ApprovalForAll(msg.sender, operator, approved);\r\n    }\r\n\r\n    function isApprovedForAll(address account, address operator)\r\n        public\r\n        view\r\n        override\r\n        returns (bool)\r\n    {\r\n        return approvals[account][operator];\r\n    }\r\n\r\n    function safeTransferFrom(\r\n        address from,\r\n        address to,\r\n        uint256 id,\r\n        uint256 amount,\r\n        bytes memory data\r\n    ) public override {\r\n        require(to != address(0), \"You can't make a transfer to address 0\");\r\n        require(\r\n            from == msg.sender || approvals[from][msg.sender] == true,\r\n            \"Your balance is insufficient\"\r\n        );\r\n        require(balances[from][id] >= amount);\r\n        balances[from][id] -= amount;\r\n        balances[to][id] += amount;\r\n\r\n        emit TransferSingle(msg.sender, from, to, id, amount);\r\n        if (isContract(to)) {\r\n            //do something\r\n        }\r\n    }\r\n\r\n    function safeBatchTransferFrom(\r\n        address from,\r\n        address to,\r\n        uint256[] calldata ids,\r\n        uint256[] calldata amounts,\r\n        bytes calldata data\r\n    ) public override {\r\n        require(to != address(0), \"You can't make a transfer to address 0\");\r\n        require(\r\n            ids.length == amounts.length,\r\n            \"The length of ids needs to be equal to length of ammounts\"\r\n        );\r\n        for (uint256 i = 0; i <= ids.length; i++) {\r\n            require(\r\n                msg.sender == from || approvals[from][msg.sender] == true,\r\n                \"You are not allowed to do this!\"\r\n            );\r\n            require(\r\n                balances[from][ids[i]] >= amounts[i],\r\n                \"Your balance is insufficient!\"\r\n            );\r\n            balances[from][ids[i]] -= amounts[i];\r\n            balances[to][ids[i]] += amounts[i];\r\n        }\r\n        emit TransferBatch(msg.sender, from, to, ids, amounts);\r\n    }\r\n\r\n    function mint(uint256 amount) public {\r\n        balances[msg.sender][lastId] = amount;\r\n        lastId++;\r\n    }\r\n\r\n    function supportsInterface(bytes4 interfaceId)\r\n        public\r\n        view\r\n        override\r\n        returns (bool)\r\n    {\r\n        return interfaceId == type(IERC1155).interfaceId;\r\n    }\r\n\r\n    function isContract(address _address) private returns (bool) {\r\n        uint32 size;\r\n        assembly {\r\n            size := extcodesize(_address)\r\n        }\r\n        return (size > 0);\r\n    }\r\n}\r\n",
  "sourcePath": "C:/Users/sakac/Desktop/ERC1155/contracts/ERC1155.sol",
  "compiler": {
    "name": "solc",
    "version": "0.8.6+commit.11564f7e.Emscripten.clang"
  },
  "schemaVersion": "3.3.4",
  "updatedAt": "2021-07-31T06:51:44.778Z",
  "networkType": "ethereum",
  "devdoc": {
    "kind": "dev",
    "methods": {
      "supportsInterface(bytes4)": {
        "details": "Returns true if this contract implements the interface defined by `interfaceId`. See the corresponding https://eips.ethereum.org/EIPS/eip-165#how-interfaces-are-identified[EIP section] to learn more about how these ids are created. This function call must use less than 30 000 gas."
      }
    },
    "version": 1
  },
  "userdoc": {
    "kind": "user",
    "methods": {},
    "version": 1
  }
}